{
  "contractName": "ERC721",
  "abi": [
    {
      "anonymous": false,
      "inputs": [
        {
          "indexed": true,
          "internalType": "address",
          "name": "owner",
          "type": "address"
        },
        {
          "indexed": true,
          "internalType": "address",
          "name": "approved",
          "type": "address"
        },
        {
          "indexed": true,
          "internalType": "uint256",
          "name": "tokenId",
          "type": "uint256"
        }
      ],
      "name": "Approval",
      "type": "event"
    },
    {
      "anonymous": false,
      "inputs": [
        {
          "indexed": true,
          "internalType": "address",
          "name": "from",
          "type": "address"
        },
        {
          "indexed": true,
          "internalType": "address",
          "name": "to",
          "type": "address"
        },
        {
          "indexed": true,
          "internalType": "uint256",
          "name": "tokenId",
          "type": "uint256"
        }
      ],
      "name": "Transfer",
      "type": "event"
    },
    {
      "inputs": [
        {
          "internalType": "address",
          "name": "_owner",
          "type": "address"
        }
      ],
      "name": "balanceOf",
      "outputs": [
        {
          "internalType": "uint256",
          "name": "",
          "type": "uint256"
        }
      ],
      "stateMutability": "view",
      "type": "function"
    },
    {
      "inputs": [
        {
          "internalType": "uint256",
          "name": "_tokenId",
          "type": "uint256"
        }
      ],
      "name": "ownerOf",
      "outputs": [
        {
          "internalType": "address",
          "name": "",
          "type": "address"
        }
      ],
      "stateMutability": "view",
      "type": "function"
    },
    {
      "inputs": [
        {
          "internalType": "address",
          "name": "_from",
          "type": "address"
        },
        {
          "internalType": "address",
          "name": "_to",
          "type": "address"
        },
        {
          "internalType": "uint256",
          "name": "_tokenId",
          "type": "uint256"
        }
      ],
      "name": "transferFrom",
      "outputs": [],
      "stateMutability": "nonpayable",
      "type": "function"
    },
    {
      "inputs": [
        {
          "internalType": "address",
          "name": "_to",
          "type": "address"
        },
        {
          "internalType": "uint256",
          "name": "tokenId",
          "type": "uint256"
        }
      ],
      "name": "approve",
      "outputs": [],
      "stateMutability": "nonpayable",
      "type": "function"
    }
  ],
  "bytecode": "0x608060405234801561001057600080fd5b50610d70806100206000396000f3fe608060405234801561001057600080fd5b506004361061004c5760003560e01c8063095ea7b31461005157806323b872dd1461006d5780636352211e1461008957806370a08231146100b9575b600080fd5b61006b600480360381019061006691906107e9565b6100e9565b005b61008760048036038101906100829190610829565b610284565b005b6100a3600480360381019061009e919061087c565b6102a7565b6040516100b091906108b8565b60405180910390f35b6100d360048036038101906100ce91906108d3565b610357565b6040516100e0919061090f565b60405180910390f35b60006100f4826102a7565b90508073ffffffffffffffffffffffffffffffffffffffff168373ffffffffffffffffffffffffffffffffffffffff1603610164576040517f08c379a000000000000000000000000000000000000000000000000000000000815260040161015b906109ad565b60405180910390fd5b8073ffffffffffffffffffffffffffffffffffffffff163373ffffffffffffffffffffffffffffffffffffffff16146101d2576040517f08c379a00000000000000000000000000000000000000000000000000000000081526004016101c990610a3f565b60405180910390fd5b826002600084815260200190815260200160002060006101000a81548173ffffffffffffffffffffffffffffffffffffffff021916908373ffffffffffffffffffffffffffffffffffffffff160217905550818373ffffffffffffffffffffffffffffffffffffffff168273ffffffffffffffffffffffffffffffffffffffff167f8c5be1e5ebec7d5bd14f71427d1e84f3dd0314c0f7b2291e5b200ac8c7c3b92560405160405180910390a4505050565b61028e338261040e565b61029757600080fd5b6102a283838361049d565b505050565b60008060008084815260200190815260200160002060009054906101000a900473ffffffffffffffffffffffffffffffffffffffff169050600073ffffffffffffffffffffffffffffffffffffffff168173ffffffffffffffffffffffffffffffffffffffff160361034e576040517f08c379a000000000000000000000000000000000000000000000000000000000815260040161034590610ad1565b60405180910390fd5b80915050919050565b60008073ffffffffffffffffffffffffffffffffffffffff168273ffffffffffffffffffffffffffffffffffffffff16036103c7576040517f08c379a00000000000000000000000000000000000000000000000000000000081526004016103be90610ad1565b60405180910390fd5b600160008373ffffffffffffffffffffffffffffffffffffffff1673ffffffffffffffffffffffffffffffffffffffff168152602001908152602001600020549050919050565b6000610419826106df565b610458576040517f08c379a000000000000000000000000000000000000000000000000000000000815260040161044f90610b3d565b60405180910390fd5b6000610463836102a7565b90508073ffffffffffffffffffffffffffffffffffffffff168473ffffffffffffffffffffffffffffffffffffffff161491505092915050565b600073ffffffffffffffffffffffffffffffffffffffff168273ffffffffffffffffffffffffffffffffffffffff160361050c576040517f08c379a000000000000000000000000000000000000000000000000000000000815260040161050390610bcf565b60405180910390fd5b8273ffffffffffffffffffffffffffffffffffffffff1661052c826102a7565b73ffffffffffffffffffffffffffffffffffffffff1614610582576040517f08c379a000000000000000000000000000000000000000000000000000000000815260040161057990610c61565b60405180910390fd5b60018060008573ffffffffffffffffffffffffffffffffffffffff1673ffffffffffffffffffffffffffffffffffffffff16815260200190815260200160002060008282546105d19190610cb0565b9250508190555060018060008473ffffffffffffffffffffffffffffffffffffffff1673ffffffffffffffffffffffffffffffffffffffff16815260200190815260200160002060008282546106279190610ce4565b925050819055508160008083815260200190815260200160002060006101000a81548173ffffffffffffffffffffffffffffffffffffffff021916908373ffffffffffffffffffffffffffffffffffffffff160217905550808273ffffffffffffffffffffffffffffffffffffffff168473ffffffffffffffffffffffffffffffffffffffff167fddf252ad1be2c89b69c2b068fc378daa952ba7f163c4a11628f55a4df523b3ef60405160405180910390a4505050565b60008060008084815260200190815260200160002060009054906101000a900473ffffffffffffffffffffffffffffffffffffffff169050600073ffffffffffffffffffffffffffffffffffffffff168173ffffffffffffffffffffffffffffffffffffffff161415915050919050565b600080fd5b600073ffffffffffffffffffffffffffffffffffffffff82169050919050565b600061078082610755565b9050919050565b61079081610775565b811461079b57600080fd5b50565b6000813590506107ad81610787565b92915050565b6000819050919050565b6107c6816107b3565b81146107d157600080fd5b50565b6000813590506107e3816107bd565b92915050565b60008060408385031215610800576107ff610750565b5b600061080e8582860161079e565b925050602061081f858286016107d4565b9150509250929050565b60008060006060848603121561084257610841610750565b5b60006108508682870161079e565b93505060206108618682870161079e565b9250506040610872868287016107d4565b9150509250925092565b60006020828403121561089257610891610750565b5b60006108a0848285016107d4565b91505092915050565b6108b281610775565b82525050565b60006020820190506108cd60008301846108a9565b92915050565b6000602082840312156108e9576108e8610750565b5b60006108f78482850161079e565b91505092915050565b610909816107b3565b82525050565b60006020820190506109246000830184610900565b92915050565b600082825260208201905092915050565b7f4572726f72202d20417070726f76616c20746f2063757272656e74206f776e6560008201527f7200000000000000000000000000000000000000000000000000000000000000602082015250565b600061099760218361092a565b91506109a28261093b565b604082019050919050565b600060208201905081810360008301526109c68161098a565b9050919050565b7f43757272656e742063616c6c6572206e6f7420746865206f776e6572206f662060008201527f74686520746f6b656e0000000000000000000000000000000000000000000000602082015250565b6000610a2960298361092a565b9150610a34826109cd565b604082019050919050565b60006020820190508181036000830152610a5881610a1c565b9050919050565b7f6f776e657220717565727920666f72206e6f6e2d6578697374656e7420746f6b60008201527f656e000000000000000000000000000000000000000000000000000000000000602082015250565b6000610abb60228361092a565b9150610ac682610a5f565b604082019050919050565b60006020820190508181036000830152610aea81610aae565b9050919050565b7f546f6b656e20646f6573206e6f74206578697374000000000000000000000000600082015250565b6000610b2760148361092a565b9150610b3282610af1565b602082019050919050565b60006020820190508181036000830152610b5681610b1a565b9050919050565b7f4572726f72202d20455243373231205472616e7366657220746f20746865207a60008201527f65726f2061646472657373000000000000000000000000000000000000000000602082015250565b6000610bb9602b8361092a565b9150610bc482610b5d565b604082019050919050565b60006020820190508181036000830152610be881610bac565b9050919050565b7f547279696e6720746f207472616e73666572206120746f6b656e20746865206160008201527f64647265737320646f6573206e6f74206f776e21000000000000000000000000602082015250565b6000610c4b60348361092a565b9150610c5682610bef565b604082019050919050565b60006020820190508181036000830152610c7a81610c3e565b9050919050565b7f4e487b7100000000000000000000000000000000000000000000000000000000600052601160045260246000fd5b6000610cbb826107b3565b9150610cc6836107b3565b925082821015610cd957610cd8610c81565b5b828203905092915050565b6000610cef826107b3565b9150610cfa836107b3565b9250827fffffffffffffffffffffffffffffffffffffffffffffffffffffffffffffffff03821115610d2f57610d2e610c81565b5b82820190509291505056fea2646970667358221220631cb26adeb59447f903eb4eea0abe24ee066dd894a3eedad3acca29df77bfc564736f6c634300080d0033",
  "immutableReferences": {},
  "source": "// SPDX-License-Identifier: MIT\npragma solidity >=0.4.22 <0.9.0;\n\ncontract ERC721 {\n    event Transfer(\n        address indexed from,\n        address indexed to,\n        uint256 indexed tokenId\n    );\n\n    event Approval(\n        address indexed owner,\n        address indexed approved,\n        uint256 indexed tokenId\n    );\n\n    // mapping from token id to the owner\n    mapping(uint256 => address) private _tokenOwner;\n\n    // mapping from owner to number of owned tokens\n    mapping(address => uint256) private _OwnedTokensCount;\n\n    // mapping from token id to approved addresses\n\n    mapping(uint256 => address) private _tokenApprovals;\n\n    /// @notice Count all NFTs assigned to an owner\n    /// @dev NFTs assigned to the zero address are considered invalid, and this\n    ///  function throws for queries about the zero address.\n    /// @param _owner An address for whom to query the balance\n    /// @return The number of NFTs owned by `_owner`, possibly zero\n\n    function balanceOf(address _owner) public view returns (uint256) {\n        require(_owner != address(0), \"owner query for non-existent token\");\n        return _OwnedTokensCount[_owner];\n    }\n\n    /// @notice Find the owner of an NFT\n    /// @dev NFTs assigned to zero address are considered invalid, and queries\n    ///  about them do throw.\n    /// @param _tokenId The identifier for an NFT\n    /// @return The address of the owner of the NFT\n\n    function ownerOf(uint256 _tokenId) public view returns (address) {\n        address owner = _tokenOwner[_tokenId];\n        require(owner != address(0), \"owner query for non-existent token\");\n        return owner;\n    }\n\n    function _exists(uint256 tokenId) internal view returns (bool) {\n        // setting the address of the nft owner to check the mapping\n        // of the address from tokenOwner to the tokenId\n        address owner = _tokenOwner[tokenId];\n        // returns truth that address is not zero\n        return owner != address(0);\n    }\n\n    function _mint(address to, uint256 tokenId) internal virtual {\n        // requires the address isn't zero\n        require(to != address(0), \"ERC721: minting to a zero address\");\n        // requires the token does not already exits\n        require(!_exists(tokenId), \"ERC721: token already minted\");\n        // add's a new address with a token id for minting\n        _tokenOwner[tokenId] = to;\n        // keeping track of each address that is minting and adding one\n        _OwnedTokensCount[to] += 1;\n\n        emit Transfer(address(0), to, tokenId);\n    }\n\n    /// @notice Transfer ownership of an NFT\n    /// @dev Throws unless `msg.sender` is the current owner, an authorized\n    ///  operator, or the approved address for this NFT. Throws if `_from` is\n    ///  not the current owner. Throws if `_to` is the zero address. Throws if\n    ///  `_tokenId` is not a valid NFT.\n    /// @param _from The current owner of the NFT\n    /// @param _to The new owner\n    /// @param _tokenId The NFT to transfer\n    function _transferFrom(\n        address _from,\n        address _to,\n        uint256 _tokenId\n    ) internal {\n        require(\n            _to != address(0),\n            \"Error - ERC721 Transfer to the zero address\"\n        );\n        require(\n            ownerOf(_tokenId) == _from,\n            \"Trying to transfer a token the address does not own!\"\n        );\n\n        _OwnedTokensCount[_from] -= 1;\n        _OwnedTokensCount[_to] += 1;\n        _tokenOwner[_tokenId] = _to;\n\n        emit Transfer(_from, _to, _tokenId);\n    }\n\n    function transferFrom(\n        address _from,\n        address _to,\n        uint256 _tokenId\n    ) public {\n        require(isApprovedOrOwner(msg.sender, _tokenId));\n        _transferFrom(_from, _to, _tokenId);\n    }\n\n    // require that the person approving is the owner\n\n    function approve(address _to, uint256 tokenId) public {\n        address owner = ownerOf(tokenId);\n        require(_to != owner, \"Error - Approval to current owner\");\n        require(\n            msg.sender == owner,\n            \"Current caller not the owner of the token\"\n        );\n        _tokenApprovals[tokenId] = _to;\n        emit Approval(owner, _to, tokenId);\n    }\n\n    function isApprovedOrOwner(address spender, uint256 tokenId)\n        internal\n        view\n        returns (bool)\n    {\n        require(_exists(tokenId), \"Token does not exist\");\n        address owner = ownerOf(tokenId);\n        return (spender == owner);\n    }\n}\n",
  "sourcePath": "/home/karlito/projects/shihverse-nft-2/shihverse-nft/src/contracts/ERC721.sol",
  "compiler": {
    "name": "solc",
    "version": "0.8.13+commit.abaa5c0e.Emscripten.clang"
  },
  "schemaVersion": "3.4.4",
  "updatedAt": "2022-04-12T18:05:54.075Z",
  "devdoc": {
    "kind": "dev",
    "methods": {
      "balanceOf(address)": {
        "details": "NFTs assigned to the zero address are considered invalid, and this  function throws for queries about the zero address.",
        "params": {
          "_owner": "An address for whom to query the balance"
        },
        "returns": {
          "_0": "The number of NFTs owned by `_owner`, possibly zero"
        }
      },
      "ownerOf(uint256)": {
        "details": "NFTs assigned to zero address are considered invalid, and queries  about them do throw.",
        "params": {
          "_tokenId": "The identifier for an NFT"
        },
        "returns": {
          "_0": "The address of the owner of the NFT"
        }
      }
    },
    "version": 1
  },
  "userdoc": {
    "kind": "user",
    "methods": {
      "balanceOf(address)": {
        "notice": "Count all NFTs assigned to an owner"
      },
      "ownerOf(uint256)": {
        "notice": "Find the owner of an NFT"
      }
    },
    "version": 1
  }
}