{
  "contractName": "ShihVerse_nft",
  "abi": [
    {
      "inputs": [],
      "stateMutability": "nonpayable",
      "type": "constructor"
    },
    {
      "anonymous": false,
      "inputs": [
        {
          "indexed": true,
          "internalType": "address",
          "name": "owner",
          "type": "address"
        },
        {
          "indexed": true,
          "internalType": "address",
          "name": "approved",
          "type": "address"
        },
        {
          "indexed": true,
          "internalType": "uint256",
          "name": "tokenId",
          "type": "uint256"
        }
      ],
      "name": "Approval",
      "type": "event"
    },
    {
      "anonymous": false,
      "inputs": [
        {
          "indexed": true,
          "internalType": "address",
          "name": "from",
          "type": "address"
        },
        {
          "indexed": true,
          "internalType": "address",
          "name": "to",
          "type": "address"
        },
        {
          "indexed": true,
          "internalType": "uint256",
          "name": "tokenId",
          "type": "uint256"
        }
      ],
      "name": "Transfer",
      "type": "event"
    },
    {
      "inputs": [
        {
          "internalType": "uint256",
          "name": "",
          "type": "uint256"
        }
      ],
      "name": "ShihVerse",
      "outputs": [
        {
          "internalType": "string",
          "name": "",
          "type": "string"
        }
      ],
      "stateMutability": "view",
      "type": "function",
      "constant": true
    },
    {
      "inputs": [
        {
          "internalType": "address",
          "name": "_to",
          "type": "address"
        },
        {
          "internalType": "uint256",
          "name": "tokenId",
          "type": "uint256"
        }
      ],
      "name": "approve",
      "outputs": [],
      "stateMutability": "nonpayable",
      "type": "function"
    },
    {
      "inputs": [
        {
          "internalType": "address",
          "name": "_owner",
          "type": "address"
        }
      ],
      "name": "balanceOf",
      "outputs": [
        {
          "internalType": "uint256",
          "name": "",
          "type": "uint256"
        }
      ],
      "stateMutability": "view",
      "type": "function",
      "constant": true
    },
    {
      "inputs": [],
      "name": "name",
      "outputs": [
        {
          "internalType": "string",
          "name": "",
          "type": "string"
        }
      ],
      "stateMutability": "view",
      "type": "function",
      "constant": true
    },
    {
      "inputs": [
        {
          "internalType": "uint256",
          "name": "_tokenId",
          "type": "uint256"
        }
      ],
      "name": "ownerOf",
      "outputs": [
        {
          "internalType": "address",
          "name": "",
          "type": "address"
        }
      ],
      "stateMutability": "view",
      "type": "function",
      "constant": true
    },
    {
      "inputs": [],
      "name": "symbol",
      "outputs": [
        {
          "internalType": "string",
          "name": "",
          "type": "string"
        }
      ],
      "stateMutability": "view",
      "type": "function",
      "constant": true
    },
    {
      "inputs": [
        {
          "internalType": "uint256",
          "name": "index",
          "type": "uint256"
        }
      ],
      "name": "tokenByIndex",
      "outputs": [
        {
          "internalType": "uint256",
          "name": "",
          "type": "uint256"
        }
      ],
      "stateMutability": "view",
      "type": "function",
      "constant": true
    },
    {
      "inputs": [
        {
          "internalType": "address",
          "name": "owner",
          "type": "address"
        },
        {
          "internalType": "uint256",
          "name": "index",
          "type": "uint256"
        }
      ],
      "name": "tokenOfOwnerByIndex",
      "outputs": [
        {
          "internalType": "uint256",
          "name": "",
          "type": "uint256"
        }
      ],
      "stateMutability": "view",
      "type": "function",
      "constant": true
    },
    {
      "inputs": [],
      "name": "totalSupply",
      "outputs": [
        {
          "internalType": "uint256",
          "name": "",
          "type": "uint256"
        }
      ],
      "stateMutability": "view",
      "type": "function",
      "constant": true
    },
    {
      "inputs": [
        {
          "internalType": "address",
          "name": "_from",
          "type": "address"
        },
        {
          "internalType": "address",
          "name": "_to",
          "type": "address"
        },
        {
          "internalType": "uint256",
          "name": "_tokenId",
          "type": "uint256"
        }
      ],
      "name": "transferFrom",
      "outputs": [],
      "stateMutability": "nonpayable",
      "type": "function"
    },
    {
      "inputs": [
        {
          "internalType": "string",
          "name": "_ShihVerse",
          "type": "string"
        }
      ],
      "name": "mint",
      "outputs": [],
      "stateMutability": "nonpayable",
      "type": "function"
    }
  ],
  "bytecode": "0x60806040523480156200001157600080fd5b506040518060400160405280600d81526020017f5368696856657273655f6e6674000000000000000000000000000000000000008152506040518060400160405280600481526020017f53484948000000000000000000000000000000000000000000000000000000008152508181816000908051906020019062000098929190620000bc565b508060019080519060200190620000b1929190620000bc565b5050505050620001d0565b828054620000ca906200019b565b90600052602060002090601f016020900481019282620000ee57600085556200013a565b82601f106200010957805160ff19168380011785556200013a565b828001600101855582156200013a579182015b82811115620001395782518255916020019190600101906200011c565b5b5090506200014991906200014d565b5090565b5b80821115620001685760008160009055506001016200014e565b5090565b7f4e487b7100000000000000000000000000000000000000000000000000000000600052602260045260246000fd5b60006002820490506001821680620001b457607f821691505b602082108103620001ca57620001c96200016c565b5b50919050565b611bc580620001e06000396000f3fe608060405234801561001057600080fd5b50600436106100a85760003560e01c80632f745c59116100715780632f745c59146101515780634f6ccce7146101815780636352211e146101b157806370a08231146101e157806395d89b4114610211578063d85d3d271461022f576100a8565b8062314d4d146100ad57806306fdde03146100dd578063095ea7b3146100fb57806318160ddd1461011757806323b872dd14610135575b600080fd5b6100c760048036038101906100c29190611094565b61024b565b6040516100d4919061115a565b60405180910390f35b6100e56102f7565b6040516100f2919061115a565b60405180910390f35b610115600480360381019061011091906111da565b610389565b005b61011f610524565b60405161012c9190611229565b60405180910390f35b61014f600480360381019061014a9190611244565b610531565b005b61016b600480360381019061016691906111da565b610554565b6040516101789190611229565b60405180910390f35b61019b60048036038101906101969190611094565b610604565b6040516101a89190611229565b60405180910390f35b6101cb60048036038101906101c69190611094565b610675565b6040516101d891906112a6565b60405180910390f35b6101fb60048036038101906101f691906112c1565b610726565b6040516102089190611229565b60405180910390f35b6102196107dd565b604051610226919061115a565b60405180910390f35b61024960048036038101906102449190611423565b61086f565b005b6009818154811061025b57600080fd5b9060005260206000200160009150905080546102769061149b565b80601f01602080910402602001604051908101604052809291908181526020018280546102a29061149b565b80156102ef5780601f106102c4576101008083540402835291602001916102ef565b820191906000526020600020905b8154815290600101906020018083116102d257829003601f168201915b505050505081565b6060600080546103069061149b565b80601f01602080910402602001604051908101604052809291908181526020018280546103329061149b565b801561037f5780601f106103545761010080835404028352916020019161037f565b820191906000526020600020905b81548152906001019060200180831161036257829003601f168201915b5050505050905090565b600061039482610675565b90508073ffffffffffffffffffffffffffffffffffffffff168373ffffffffffffffffffffffffffffffffffffffff1603610404576040517f08c379a00000000000000000000000000000000000000000000000000000000081526004016103fb9061153e565b60405180910390fd5b8073ffffffffffffffffffffffffffffffffffffffff163373ffffffffffffffffffffffffffffffffffffffff1614610472576040517f08c379a0000000000000000000000000000000000000000000000000000000008152600401610469906115d0565b60405180910390fd5b826004600084815260200190815260200160002060006101000a81548173ffffffffffffffffffffffffffffffffffffffff021916908373ffffffffffffffffffffffffffffffffffffffff160217905550818373ffffffffffffffffffffffffffffffffffffffff168273ffffffffffffffffffffffffffffffffffffffff167f8c5be1e5ebec7d5bd14f71427d1e84f3dd0314c0f7b2291e5b200ac8c7c3b92560405160405180910390a4505050565b6000600580549050905090565b61053b3382610972565b61054457600080fd5b61054f838383610a01565b505050565b600061055f83610726565b82106105a0576040517f08c379a00000000000000000000000000000000000000000000000000000000081526004016105979061163c565b60405180910390fd5b600760008473ffffffffffffffffffffffffffffffffffffffff1673ffffffffffffffffffffffffffffffffffffffff16815260200190815260200160002082815481106105f1576105f061165c565b5b9060005260206000200154905092915050565b600061060e610524565b821061064f576040517f08c379a0000000000000000000000000000000000000000000000000000000008152600401610646906116d7565b60405180910390fd5b600582815481106106635761066261165c565b5b90600052602060002001549050919050565b6000806002600084815260200190815260200160002060009054906101000a900473ffffffffffffffffffffffffffffffffffffffff169050600073ffffffffffffffffffffffffffffffffffffffff168173ffffffffffffffffffffffffffffffffffffffff160361071d576040517f08c379a000000000000000000000000000000000000000000000000000000000815260040161071490611769565b60405180910390fd5b80915050919050565b60008073ffffffffffffffffffffffffffffffffffffffff168273ffffffffffffffffffffffffffffffffffffffff1603610796576040517f08c379a000000000000000000000000000000000000000000000000000000000815260040161078d90611769565b60405180910390fd5b600360008373ffffffffffffffffffffffffffffffffffffffff1673ffffffffffffffffffffffffffffffffffffffff168152602001908152602001600020549050919050565b6060600180546107ec9061149b565b80601f01602080910402602001604051908101604052809291908181526020018280546108189061149b565b80156108655780601f1061083a57610100808354040283529160200191610865565b820191906000526020600020905b81548152906001019060200180831161084857829003601f168201915b5050505050905090565b600a8160405161087f91906117c5565b908152602001604051809103902060009054906101000a900460ff16156108db576040517f08c379a00000000000000000000000000000000000000000000000000000000081526004016108d290611828565b60405180910390fd5b600981908060018154018082558091505060019003906000526020600020016000909190919091509080519060200190610916929190610fa7565b506000600160098054905061092b9190611877565b90506109373382610c46565b6001600a8360405161094991906117c5565b908152602001604051809103902060006101000a81548160ff0219169083151502179055505050565b600061097d82610c67565b6109bc576040517f08c379a00000000000000000000000000000000000000000000000000000000081526004016109b3906118f7565b60405180910390fd5b60006109c783610675565b90508073ffffffffffffffffffffffffffffffffffffffff168473ffffffffffffffffffffffffffffffffffffffff161491505092915050565b600073ffffffffffffffffffffffffffffffffffffffff168273ffffffffffffffffffffffffffffffffffffffff1603610a70576040517f08c379a0000000000000000000000000000000000000000000000000000000008152600401610a6790611989565b60405180910390fd5b8273ffffffffffffffffffffffffffffffffffffffff16610a9082610675565b73ffffffffffffffffffffffffffffffffffffffff1614610ae6576040517f08c379a0000000000000000000000000000000000000000000000000000000008152600401610add90611a1b565b60405180910390fd5b6001600360008573ffffffffffffffffffffffffffffffffffffffff1673ffffffffffffffffffffffffffffffffffffffff1681526020019081526020016000206000828254610b369190611877565b925050819055506001600360008473ffffffffffffffffffffffffffffffffffffffff1673ffffffffffffffffffffffffffffffffffffffff1681526020019081526020016000206000828254610b8d9190611a3b565b92505081905550816002600083815260200190815260200160002060006101000a81548173ffffffffffffffffffffffffffffffffffffffff021916908373ffffffffffffffffffffffffffffffffffffffff160217905550808273ffffffffffffffffffffffffffffffffffffffff168473ffffffffffffffffffffffffffffffffffffffff167fddf252ad1be2c89b69c2b068fc378daa952ba7f163c4a11628f55a4df523b3ef60405160405180910390a4505050565b610c508282610cd9565b610c5981610e9a565b610c638282610ee3565b5050565b6000806002600084815260200190815260200160002060009054906101000a900473ffffffffffffffffffffffffffffffffffffffff169050600073ffffffffffffffffffffffffffffffffffffffff168173ffffffffffffffffffffffffffffffffffffffff161415915050919050565b600073ffffffffffffffffffffffffffffffffffffffff168273ffffffffffffffffffffffffffffffffffffffff1603610d48576040517f08c379a0000000000000000000000000000000000000000000000000000000008152600401610d3f90611b03565b60405180910390fd5b610d5181610c67565b15610d91576040517f08c379a0000000000000000000000000000000000000000000000000000000008152600401610d8890611b6f565b60405180910390fd5b816002600083815260200190815260200160002060006101000a81548173ffffffffffffffffffffffffffffffffffffffff021916908373ffffffffffffffffffffffffffffffffffffffff1602179055506001600360008473ffffffffffffffffffffffffffffffffffffffff1673ffffffffffffffffffffffffffffffffffffffff1681526020019081526020016000206000828254610e339190611a3b565b92505081905550808273ffffffffffffffffffffffffffffffffffffffff16600073ffffffffffffffffffffffffffffffffffffffff167fddf252ad1be2c89b69c2b068fc378daa952ba7f163c4a11628f55a4df523b3ef60405160405180910390a45050565b6005805490506006600083815260200190815260200160002081905550600581908060018154018082558091505060019003906000526020600020016000909190919091505550565b600760008373ffffffffffffffffffffffffffffffffffffffff1673ffffffffffffffffffffffffffffffffffffffff168152602001908152602001600020805490506008600083815260200190815260200160002081905550600760008373ffffffffffffffffffffffffffffffffffffffff1673ffffffffffffffffffffffffffffffffffffffff1681526020019081526020016000208190806001815401808255809150506001900390600052602060002001600090919091909150555050565b828054610fb39061149b565b90600052602060002090601f016020900481019282610fd5576000855561101c565b82601f10610fee57805160ff191683800117855561101c565b8280016001018555821561101c579182015b8281111561101b578251825591602001919060010190611000565b5b509050611029919061102d565b5090565b5b8082111561104657600081600090555060010161102e565b5090565b6000604051905090565b600080fd5b600080fd5b6000819050919050565b6110718161105e565b811461107c57600080fd5b50565b60008135905061108e81611068565b92915050565b6000602082840312156110aa576110a9611054565b5b60006110b88482850161107f565b91505092915050565b600081519050919050565b600082825260208201905092915050565b60005b838110156110fb5780820151818401526020810190506110e0565b8381111561110a576000848401525b50505050565b6000601f19601f8301169050919050565b600061112c826110c1565b61113681856110cc565b93506111468185602086016110dd565b61114f81611110565b840191505092915050565b600060208201905081810360008301526111748184611121565b905092915050565b600073ffffffffffffffffffffffffffffffffffffffff82169050919050565b60006111a78261117c565b9050919050565b6111b78161119c565b81146111c257600080fd5b50565b6000813590506111d4816111ae565b92915050565b600080604083850312156111f1576111f0611054565b5b60006111ff858286016111c5565b92505060206112108582860161107f565b9150509250929050565b6112238161105e565b82525050565b600060208201905061123e600083018461121a565b92915050565b60008060006060848603121561125d5761125c611054565b5b600061126b868287016111c5565b935050602061127c868287016111c5565b925050604061128d8682870161107f565b9150509250925092565b6112a08161119c565b82525050565b60006020820190506112bb6000830184611297565b92915050565b6000602082840312156112d7576112d6611054565b5b60006112e5848285016111c5565b91505092915050565b600080fd5b600080fd5b7f4e487b7100000000000000000000000000000000000000000000000000000000600052604160045260246000fd5b61133082611110565b810181811067ffffffffffffffff8211171561134f5761134e6112f8565b5b80604052505050565b600061136261104a565b905061136e8282611327565b919050565b600067ffffffffffffffff82111561138e5761138d6112f8565b5b61139782611110565b9050602081019050919050565b82818337600083830152505050565b60006113c66113c184611373565b611358565b9050828152602081018484840111156113e2576113e16112f3565b5b6113ed8482856113a4565b509392505050565b600082601f83011261140a576114096112ee565b5b813561141a8482602086016113b3565b91505092915050565b60006020828403121561143957611438611054565b5b600082013567ffffffffffffffff81111561145757611456611059565b5b611463848285016113f5565b91505092915050565b7f4e487b7100000000000000000000000000000000000000000000000000000000600052602260045260246000fd5b600060028204905060018216806114b357607f821691505b6020821081036114c6576114c561146c565b5b50919050565b7f4572726f72202d20417070726f76616c20746f2063757272656e74206f776e6560008201527f7200000000000000000000000000000000000000000000000000000000000000602082015250565b60006115286021836110cc565b9150611533826114cc565b604082019050919050565b600060208201905081810360008301526115578161151b565b9050919050565b7f43757272656e742063616c6c6572206e6f7420746865206f776e6572206f662060008201527f74686520746f6b656e0000000000000000000000000000000000000000000000602082015250565b60006115ba6029836110cc565b91506115c58261155e565b604082019050919050565b600060208201905081810360008301526115e9816115ad565b9050919050565b7f4f776e657220696e646578206973206f7574206f6620626f756e647321000000600082015250565b6000611626601d836110cc565b9150611631826115f0565b602082019050919050565b6000602082019050818103600083015261165581611619565b9050919050565b7f4e487b7100000000000000000000000000000000000000000000000000000000600052603260045260246000fd5b7f476c6f62616c20696e646578206973206f7574206f6620626f756e6473210000600082015250565b60006116c1601e836110cc565b91506116cc8261168b565b602082019050919050565b600060208201905081810360008301526116f0816116b4565b9050919050565b7f6f776e657220717565727920666f72206e6f6e2d6578697374656e7420746f6b60008201527f656e000000000000000000000000000000000000000000000000000000000000602082015250565b60006117536022836110cc565b915061175e826116f7565b604082019050919050565b6000602082019050818103600083015261178281611746565b9050919050565b600081905092915050565b600061179f826110c1565b6117a98185611789565b93506117b98185602086016110dd565b80840191505092915050565b60006117d18284611794565b915081905092915050565b7f4572726f72204e465420616c7265616479206578697374730000000000000000600082015250565b60006118126018836110cc565b915061181d826117dc565b602082019050919050565b6000602082019050818103600083015261184181611805565b9050919050565b7f4e487b7100000000000000000000000000000000000000000000000000000000600052601160045260246000fd5b60006118828261105e565b915061188d8361105e565b9250828210156118a05761189f611848565b5b828203905092915050565b7f546f6b656e20646f6573206e6f74206578697374000000000000000000000000600082015250565b60006118e16014836110cc565b91506118ec826118ab565b602082019050919050565b60006020820190508181036000830152611910816118d4565b9050919050565b7f4572726f72202d20455243373231205472616e7366657220746f20746865207a60008201527f65726f2061646472657373000000000000000000000000000000000000000000602082015250565b6000611973602b836110cc565b915061197e82611917565b604082019050919050565b600060208201905081810360008301526119a281611966565b9050919050565b7f547279696e6720746f207472616e73666572206120746f6b656e20746865206160008201527f64647265737320646f6573206e6f74206f776e21000000000000000000000000602082015250565b6000611a056034836110cc565b9150611a10826119a9565b604082019050919050565b60006020820190508181036000830152611a34816119f8565b9050919050565b6000611a468261105e565b9150611a518361105e565b9250827fffffffffffffffffffffffffffffffffffffffffffffffffffffffffffffffff03821115611a8657611a85611848565b5b828201905092915050565b7f4552433732313a206d696e74696e6720746f2061207a65726f2061646472657360008201527f7300000000000000000000000000000000000000000000000000000000000000602082015250565b6000611aed6021836110cc565b9150611af882611a91565b604082019050919050565b60006020820190508181036000830152611b1c81611ae0565b9050919050565b7f4552433732313a20746f6b656e20616c7265616479206d696e74656400000000600082015250565b6000611b59601c836110cc565b9150611b6482611b23565b602082019050919050565b60006020820190508181036000830152611b8881611b4c565b905091905056fea26469706673582212208c2d8969cb9b24d60616e099991d0ac8cba04f6566bc5e62418ce4cffc9f6b5d64736f6c634300080d0033",
  "immutableReferences": {},
  "source": "// SPDX-License-Identifier: MIT\npragma solidity >=0.4.22 <0.9.0;\n\nimport \"./ERC721Connector.sol\";\n\ncontract ShihVerse_nft is ERC721Connector {\n    //array to store NFT's\n    string[] public ShihVerse;\n\n    mapping(string => bool) _ShihVerseExists;\n\n    function mint(string memory _ShihVerse) public {\n        require(!_ShihVerseExists[_ShihVerse], \"Error NFT already exists\");\n        ShihVerse.push(_ShihVerse);\n        uint256 _id = ShihVerse.length - 1;\n\n        _mint(msg.sender, _id);\n\n        _ShihVerseExists[_ShihVerse] = true;\n    }\n\n    constructor() ERC721Connector(\"ShihVerse_nft\", \"SHIH\") {}\n}\n",
  "sourcePath": "/home/karlito/projects/shihverse-nft-2/shihverse-nft/src/contracts/ShihVerse.sol",
  "compiler": {
    "name": "solc",
    "version": "0.8.13+commit.abaa5c0e.Emscripten.clang"
  },
  "schemaVersion": "3.4.4",
  "updatedAt": "2022-04-12T18:06:04.291Z",
  "networkType": "ethereum",
  "devdoc": {
    "kind": "dev",
    "methods": {
      "balanceOf(address)": {
        "details": "NFTs assigned to the zero address are considered invalid, and this  function throws for queries about the zero address.",
        "params": {
          "_owner": "An address for whom to query the balance"
        },
        "returns": {
          "_0": "The number of NFTs owned by `_owner`, possibly zero"
        }
      },
      "ownerOf(uint256)": {
        "details": "NFTs assigned to zero address are considered invalid, and queries  about them do throw.",
        "params": {
          "_tokenId": "The identifier for an NFT"
        },
        "returns": {
          "_0": "The address of the owner of the NFT"
        }
      },
      "totalSupply()": {
        "returns": {
          "_0": "A count of valid NFTs tracked by this contract, where each one of  them has an assigned and queryable owner not equal to the zero address"
        }
      }
    },
    "version": 1
  },
  "userdoc": {
    "kind": "user",
    "methods": {
      "balanceOf(address)": {
        "notice": "Count all NFTs assigned to an owner"
      },
      "ownerOf(uint256)": {
        "notice": "Find the owner of an NFT"
      },
      "totalSupply()": {
        "notice": "Count NFTs tracked by this contract"
      }
    },
    "version": 1
  }
}